:100000000C942D000C9415020C9441020C942803BE
:100010000C9428030C9428030C9428030C942803B4
:100020000C9428030C9428030C9428030C942803A4
:100030000C9428030C9428030C9428030C94280394
:100040000C9428030C9428030C9428030C94280384
:100050000C94280300600067800011241FBECFE5C8
:10006000D8E0DEBFCDBFE4E5F0E040E017C0B591D9
:10007000A59135912591059107FD0CC0959185912C
:10008000EF01F92FE82F05900D92A217B307D9F7CA
:10009000FE0104C01D92A217B307E1F7E935F4078A
:0E00A00031F70E94C7020C941903F894FFCFA9
:1000AE00843018F4683008F478C04130C1F58130DE
:1000BE0091F028F08230D9F0833029F170C02AB344
:1000CE0081E090E002C0880F991F6A95E2F7822BBB
:1000DE008ABB80E0089527B381E090E002C0880FCC
:1000EE00991F6A95E2F7822B87BB80E0089524B3AF
:1000FE0081E090E002C0880F991F6A95E2F7822B8B
:10010E0084BB80E0089521B381E090E002C0880FA7
:10011E00991F6A95E2F7822B81BB80E00895411109
:10012E0040C0813099F028F08230E9F0833041F1FF
:10013E003AC02AB381E090E002C0880F991F6A95F9
:10014E00E2F7809582238ABB80E0089527B381E091
:10015E0090E002C0880F991F6A95E2F7809582237E
:10016E0087BB80E0089524B381E090E002C0880F41
:10017E00991F6A95E2F78095822384BB80E00895EB
:10018E0021B381E090E002C0880F991F6A95E2F7D3
:10019E008095822381BB80E0089581E0089580E000
:0A01AE00089581E0089580E00895AF
:1001B800843018F4683008F478C04130C1F58130D3
:1001C80091F028F08230D9F0833029F170C02BB338
:1001D80081E090E002C0880F991F6A95E2F7822BB0
:1001E8008BBB80E0089528B381E090E002C0880FBF
:1001F800991F6A95E2F7822B88BB80E0089525B3A2
:1002080081E090E002C0880F991F6A95E2F7822B7F
:1002180085BB80E0089522B381E090E002C0880F9A
:10022800991F6A95E2F7822B82BB80E008954111FD
:1002380040C0813099F028F08230E9F0833041F1F4
:100248003AC02BB381E090E002C0880F991F6A95ED
:10025800E2F7809582238BBB80E0089528B381E084
:1002680090E002C0880F991F6A95E2F78095822373
:1002780088BB80E0089525B381E090E002C0880F34
:10028800991F6A95E2F78095822385BB80E00895DF
:1002980022B381E090E002C0880F991F6A95E2F7C7
:1002A8008095822382BB80E0089581E0089580E0F4
:0A02B800089581E0089580E00895A4
:1002C200843018F4683008F465C08130F1F030F001
:1002D200823091F1833009F446C05EC079B381E087
:1002E20090E09C01062E02C0220F331F0A94E2F70F
:1002F200872F90E08223932302C0959587956A9574
:10030200E2F7FA01808380E0089576B381E090E01D
:100312009C01062E02C0220F331F0A94E2F7872F98
:1003220090E08223932302C0959587956A95E2F720
:10033200FA01808380E0089573B381E090E09C012C
:10034200062E02C0220F331F0A94E2F7872F90E095
:100352008223932302C0959587956A95E2F7FA0165
:10036200808380E0089570B381E090E09C01062EC6
:1003720002C0220F331F0A94E2F7872F90E08223F4
:10038200932302C0959587956A95E2F7FA018083D7
:0C03920080E0089581E0089580E0089567
:10039E00863019F0873009F10895613031F058F048
:1003AE00623079F0633099F018C085B7826085BFEE
:1003BE0085B78E7F85BF85B7826085BF85B7816023
:1003CE0085BF85B78E7F85BF85B78E7F85BF85B785
:1003DE00816085BF85B78D7F85BF613031F058F064
:1003EE00623079F0633099F0089585B7886085BFE3
:1003FE0085B78B7F85BF85B7886085BF85B78460DD
:10040E0085BF85B7877F85BF85B78B7F85BF85B74E
:0C041E00846085BF85B7877F85BF089587
:10042A001F920F920FB60F9211242F933F934F935F
:10043A005F936F937F938F939F93AF93BF93EF9342
:10044A00FF93E0916000F0916100309721F00995E7
:10045A0086E00E940203FF91EF91BF91AF919F91B5
:10046A008F917F916F915F914F913F912F910F9053
:08047A000FBE0F901F901895B2
:100482001F920F920FB60F9211242F933F934F9307
:100492005F936F937F938F939F93AF93BF93EF93EA
:1004A200FF93E0916200F0916300309721F009958B
:1004B20087E00E940203FF91EF91BF91AF919F915C
:1004C2008F917F916F915F914F913F912F910F90FB
:0804D2000FBE0F901F9018955A
:1004DA00CF93DF93C82FD62F41E050E0682F8D2F9E
:1004EA000E946101882331F06D2F8C2F0E949002A7
:1004FA0080E00EC040E050E06C2F8D2F0E94610119
:10050A00882331F06D2F8C2F0E94A30281E000C056
:06051A00DF91CF9108956E
:10052000CF93DF93D82FC62F0E94F60241E06D2FA4
:100530008C2F0E94DC00882311F080E001C081E054
:06054000DF91CF91089548
:10054600CF93DF93D82FC62F0E94F60240E06D2F7F
:100556008C2F0E94DC00882311F080E001C081E02E
:06056600DF91CF91089522
:10056C0060E086E00E94CF0160E087E00E94CF014E
:10057C0062B382E00E94F60262B383E00E94F6024C
:02058C000895D0
:10058E000E94B6020E94240366E070E088EE92E0BC
:10059E000E940E0367E070E088ED92E00E940E0369
:0205AE00FFCF7D
:1005B00062B383E00E946D02813049F4809166004D
:1005C0008A3028F4882319F08150809366000895BA
:1005D00062B383E00E946D02811107C080916600C2
:0C05E0008A3018F48F5F80936600089545
:1005EC00982F862F40E0692F0E945700882311F026
:0805FC0080E0089581E00895FC
:100604009AB721E030E002C0220F331F8A95E2F747
:08061400209529232ABF089557
:10061C00009741F0E62FF0E0EE0FFF1FE05AFF4F7E
:06062C0091838083089514
:10063200EC010E942D030E942C03CE010E942E0386
:06064200CE010E942A0314
:080648008FB780688FBF089591
:040650000C94000006
:040654000E945500AB
:02065800089503
:02065A00089501
:02065C000895FF
:00000001FF
